:100000000A128A11EB2F00308A000408840A820742
:100010000034543469346D3465343D34253430341F
:10002000323478343A3425343034323478343A3413
:10003000253430343234783420340D340A340034EA
:10077A00080064008001840A040603190034040690
:10078A00BF2B83160313911483128C1DCD2BCE2BF2
:10079A00C92B8C11080083160313111583128C1DA3
:1007AA00D72BD82BD32B8C110800F00083120313FC
:1007BA000C1EE02BE12BDB2B700899000800831636
:1007CA0003139112111683128C1DEC2BED2BE82BBF
:1007DA008C110800831603139116111683128C1DAF
:1007EA00F72BF82BF32B8C110800831603139115A2
:1007FA0083128C1D012C022CFD2B8C11130808006E
:10080A0083160313111411180B2C0C2C082C8312A9
:10081A0003138C11080080308316031394002830C8
:10082A0083120313940009308316031393000800FC
:10083A008316031307138717243098009030831206
:10084A000313980019308316031399000800F20065
:10085A003A2C7208840000080A128A11DA230A1252
:10086A008A110130F1007108F207720884008313BB
:10087A000008031D412C422C2E2C0800F400740899
:10088A008312031393008C1D4B2C4C2C482C8C1177
:10089A00031083160313111B0314003003180130CD
:1008AA00F200F3017208F0007308F10008008312E5
:1008BA000313CA004230C9004A08CB00CD01CE0159
:1008CA00D401D5014108BD004930BE004B300A129F
:1008DA008A117B240A128A11831203134D084A07CC
:1008EA00C800480884008313800108008312031398
:1008FA00BF003D08C0008B2C4030B2003E08B30058
:10090A003F080A128A1125270A128A118312031331
:10091A00400884000A128A1103200A128A11003A36
:10092A00031D982C992C812CBD01BE010800F401ED
:10093A00F501701CA12CA22CA82C7208F40703182C
:10094A00F50A7308F50701300310F20DF30DFF3EA7
:10095A00031DA92C01300310F10CF00CFF3E031DFE
:10096A00B02C70087104031DBB2CBC2C9E2C75087E
:10097A00F1007408F000080083120313A300A10118
:10098A00A201DD2C2008F900FA017908F0007A08A2
:10099A00F1007808F2000A128A1137250A128A1120
:1009AA00013083120313A1070318A20A0030A20719
:1009BA0021082307F9007908840083130008A0009E
:1009CA002008031DE92CEA2CC72C08008312031304
:1009DA00A700631CF12CF22CFA2C2708F8007B08DC
:1009EA000A128A11C1240A128A11FD1FFD2CFE2C3B
:1009FA00002DFC01FD0183120313A501A6011A2D86
:100A0A002030F0000030F100831203132708F200AF
:100A1A000A128A1137250A128A1101308312031326
:100A2A00A5070318A60A0030A6072608803AA400DC
:100A3A007D08803A2402031D242D7C082502031C0C
:100A4A00272D282D052D8312031363182D2D2E2DE6
:100A5A00362D2708F8007B080A128A11C1240A12C7
:100A6A008A110800720803193B2D3C2D412D72088A
:100A7A00031D402D412D482D70080A128A11BD23ED
:100A8A000A128A118C2D7208093E84008313000809
:100A9A00F300840A0008F400730874040319562D3D
:100AAA00572D752D7208093E84000008F300840A48
:100ABA000008F4007208023E84000008F500840A67
:100ACA000008F6007608803AF7007408803A770240
:100ADA00031D712D730875020318742D752D8C2D45
:100AEA007208023E840083130008F300720884002F
:100AFA0000087307F4007408840070088000720804
:100B0A00023E840001308007840A0318800A080024
:100B1A00FC00FA01FB017C088400831300088400AE
:100B2A000A128A1103200A128A112A3A031D9E2DDB
:100B3A009F2DCF2D0130F8007C08840078088007AB
:100B4A00760884000008F8000230800778088400DC
:100B5A000008FA00840A0008FB00E02D7B08F10077
:100B6A007A08F0000A30F2000030F3000A128A1103
:100B7A009C240A128A1179087007FA0000300318B7
:100B8A0001307107FB000130F8007C088400780806
:100B9A00831380077C088400000884000A128A11E3
:100BAA0003200A128A11D03EF9000A307902031C86
:100BBA00DF2DE02DB32D7B08F7007A08F600080038
:100BCA0083120313AB00AC01AC0A5A08AE005908F1
:100BDA00AD001F30B0000030B10083160313E701E7
:100BEA00242EFF30B0070318B10AFF30B1072808D6
:100BFA000F39AF000A302F020318042E052E0A2ED1
:100C0A003030AA002A08AF070E2E5730AA002A0849
:100C1A00AF073008C83E84002F0883138000AC0158
:100C2A00FF30AD070318AE0AFF30AE07280E0F39A2
:100C3A00A800290EF039A804290E0F39A900831239
:100C4A003108803AFF0080307F02031D2E2E0230C9
:100C5A003002031C312E322E522E8312031328081F
:100C6A002904031D392E3A2EF62D2C08031D3E2E7B
:100C7A003F2EF62D2E08803AFF0080307F02031D9A
:100C8A00482E01302D02031C4B2E4C2E522E83125D
:100C9A000313E318512E522EF62D83120313300834
:100CAA00C83EFB002E08FD002D08FC002B080A1286
:100CBA008A11EB240A128A1108000A128A111D24C9
:100CCA000A128A110A128A1110240A128A110A12A5
:100CDA008A1105240A128A11D0300A128A11432471
:100CEA000A128A117003710403197C2E7D2E6C2E50
:100CFA0000300A128A1143240A128A1100300A1299
:100D0A008A1143240A128A1100300A128A114324D2
:100D1A000A128A1100300A128A1143240A128A110D
:100D2A000A128A11D0230A128A110A128A11052478
:100D3A000A128A11D0300A128A1143240A128A111D
:100D4A00700371040319AA2EAB2E9A2E00300A12D0
:100D5A008A1143240A128A110A128A11C6230A1214
:100D6A008A11D1300A128A1143240A128A110A12EC
:100D7A008A11FA230A128A1183120313D600D701A1
:100D8A005608E1005708E2000A128A11E4230A12FF
:100D9A008A110A128A11FA230A128A118312031378
:100DAA00D600D7015608DF005708E0000A128A1158
:100DBA00E4230A128A110A128A11FA230A128A11E0
:100DCA0083120313D600D7015608DD005708DE0048
:100DDA000A128A11EF230A128A110A128A11D023DF
:100DEA000A128A11013083120313C1005E08C3007C
:100DFA005D08C2006008C5005F08C4006208C70039
:100E0A006108C600A0300A128A115C240A128A11EB
:100E1A00A0300A128A112C240A128A11063083126F
:100E2A000313D8001330D700AD30D600D60B1B2FD2
:100E3A00D70B1B2FD80B1B2F9A2E0A128A110028A8
:100E4A0083120313BB003208840083130008840052
:100E5A000A128A1103200A128A11253A031D362F13
:100E6A00372FD32F0130B4003208840034088007AA
:100E7A00D901DA010310003003180130E300FF3012
:100E8A00DB00FF30DC00BA016A2FE3140130B40042
:100E9A0032088400340880076A2FBA01BA0A6A2F16
:100EAA0032088400000884000A128A1103200A12F8
:100EBA008A11B400B5013508003A0319652F522F7B
:100ECA003408303A03194A2F522F3A0803196E2F61
:100EDA006F2F552F3308F60032080A128A118D2512
:100EEA000A128A11770883120313DA007608D900E6
:100EFA00DA1F802F812F872F6314D909DA09D90ABB
:100F0A000319DA0A3208840083130008BC003C087B
:100F1A0084000A128A1103200A128A11783A031DE0
:100F2A00972F982FC92F330884000008B400023085
:100F3A008007340884000008B600840A0008B70055
:100F4A00320884003C08013E8000B62F3708A90009
:100F5A003608A8003B080A128A11E5250A128A11E6
:100F6A00EA2F3C0884000A128A1103200A128A1105
:100F7A00B400B5013508003A0319C42FC92F340843
:100F8A00783A0319AB2FC92F013083120313B40027
:100F9A0032088400340883138007EA2F3208840059
:100FAA00000884000A128A1103200A128A11B40066
:100FBA00B5013408F0003508F1003B08F2000A12C6
:100FCA008A1137250A128A11C92F0800831359304A
:100FDA00840064300A128A11BE230A128A11A030D0
:100FEA008400E8300A128A11BE230A128A11830188
:060FFA000A128A11622EAA
:02400E00393F38
:00000001FF
