:100000000A128A11FC2F00308A000408840A820731
:100010000034683465346C346C346F342034773495
:0A0020006F3472346C346434003421
:100E5600F600831203130710871076080A128A1108
:100E660077270A128A110800F60083120313071463
:100E7600871076080A128A1177270A128A11080043
:100E86008312031307150D30F100FB30F000F00B51
:100E96004A2FF10B4A2F4F2F831203130711080015
:100EA600F300F0307305F2008312031307080F39BD
:100EB600720487000A128A1143270A128A1108004F
:100EC600F8007808031D682F692F6C2F7708F90042
:100ED6006F2F7708403EF900790880380A128A1188
:100EE6002B270A128A110800F5007508F0390A1234
:100EF6008A1153270A128A117508F4000330031069
:100F0600F40DFF3E031D822F0310740DF0390A12F3
:100F16008A1153270A128A110800831603138701C0
:100F26008312031387010A128A11CB270A128A1128
:100F3600F70100300A128A1163270A128A1101305A
:100F46000A128A11AC270A128A11A82F0A128A11CC
:100F56000028F800BE2F780884000A128A110320A0
:100F66000A128A110A128A1137270A128A110130C7
:100F7600F7007708F807780884000A128A11032018
:100F86000A128A11003A031DC92FCA2FAE2F080074
:100F96001430F8007930F700F70BCF2FF80BCF2F6E
:100FA600D42F02300A128A112B270A128A112830EE
:100FB6000A128A112B270A128A110C300A128A1178
:100FC6002B270A128A1106300A128A112B270A12B7
:100FD6008A1101300A128A112B270A128A1104304B
:100FE600F800E430F700F70BF62FF80BF62F0000A9
:0A0FF600080083010A128A11902FEF
:02400E00393F38
:00000001FF
