:100000000A128A11F02F00308A000408840A82073D
:0E001000003441344B34483449344C3400340D
:100CF20064008001840A04060319003404067A2E73
:100D02008316031311141118872E882E842E831232
:100D120003138C11080080308316031394002830CB
:100D220083120313940009308316031393000800FF
:100D3200F9007908031D9E2E9F2EA22E7808FA0034
:100D4200A52E7808403EFA007A0880380A128A11E5
:100D520042270A128A110800F4007408831203134E
:100D620093008C1DB52EB62EB22E8C110310831655
:100D72000313111B0314003003180130F200F301B6
:100D82007208F0007308F1000800F900D82E790803
:100D920084000A128A1103200A128A110A128A1185
:100DA20099270A128A110130F8007808F9077908A0
:100DB20084000A128A1103200A128A11003A031DC2
:100DC200E32EE42EC82E08000A128A118C260A127B
:100DD2008A110A128A1181260A128A114E300A12C7
:100DE2008A11AD260A128A11700371040319FA2EB0
:100DF200FB2EEA2E0A128A1111270A128A11F80111
:100E020000300A128A1199260A128A1101300A1236
:100E12008A11C6260A128A110D2F0A128A11002877
:100E22001430F9007930F800F80B152FF90B152F53
:100E32001A2F02300A128A1142270A128A11283006
:100E42000A128A1142270A128A110C300A128A11D6
:100E520042270A128A1106300A128A1142270A12FE
:100E62008A1101300A128A1142270A128A110430A9
:100E7200F900E430F800F80B3C2FF90B3C2F00008E
:100E82000800F7000830FD00F0307705F5007D0816
:100E92000F397504FD007D080A128A11AD260A1267
:100EA2008A117D157D080A128A11AD260A128A114D
:100EB2000D30F600FB30F500F50B5D2FF60B5D2FC4
:100EC200622FFB30F5007508FD057D080A128A11B4
:100ED200AD260A128A117708F50004300310F50DC9
:100EE200FF3E031D6F2F7D080F397504FD007D083D
:100EF2000A128A11AD260A128A117D157D080A127C
:100F02008A11AD260A128A110D30F600FB30F50067
:100F1200F50B892FF60B892F8E2FFB30F500750804
:100F2200FD057D080A128A11AD260A128A110800EF
:100F3200F7000930FD00F0307705F5007D080F3924
:100F42007504FD007D080A128A11AD260A128A1163
:100F52007D157D080A128A11AD260A128A110D30FA
:100F6200F600FB30F500F50BB42FF60BB42FB92FBA
:100F7200FB30F5007508FD057D080A128A11AD26C1
:100F82000A128A117708F50004300310F50DFF3EAE
:100F9200031DC62F7D080F397504FD007D080A1256
:100FA2008A11AD260A128A117D157D080A128A114C
:100FB200AD260A128A110D30F600FB30F500F50B52
:100FC200E02FF60BE02FE52FFB30F5007508FD054D
:100FD2007D080A128A11AD260A128A110800FB0145
:100FE200FC01FD018313203084004C300A128A1167
:0E0FF20079260A128A1183010A128A11E52E4D
:02400E00393F38
:00000001FF
