:100000000A128A11EB2FFF1B0D2883137F18831709
:100010000008840A0319FF0A080000308A00040857
:10002000840A820700342A342A342A342A342A34AF
:100030002A342A342A342A342A3449343234433490
:1000400020345334433441344E3420344234453424
:10005000473449344E3453342A342A342A342A3427
:100060002A342A342A342A342A342A342A342A34A0
:100070000D340A34003444346534763469346334DE
:100080006534203466346F3475346E34643420340F
:1000900061347434203461346434643472346534CB
:1000A000733473343A342034253478340D340A34BC
:1000B00000346E346F3420346434653476346934FB
:1000C00063346534203466346F3475346E3464348C
:0200D0000034FA
:100B2400080064008001840A0406031900340406E2
:100B3400942DF000831203130C1EA12DA22D9C2DC5
:100B44007008990008008316031311141118AB2DB3
:100B5400AC2DA82D831203138C11080083160313E4
:100B640011151119B62DB72DB32D831203138C1142
:100B74000800803083160313940028308312031373
:100B8400940009308316031393000800831603139B
:100B940007138717243098009030831203139800AA
:100BA40019308316031399000800F40074088312A3
:100BB400031393008C1DDF2DE02DDC2D8C1103100D
:100BC40083160313111B0314003003180130F200C1
:100BD400F3017208F0007308F10008008312031394
:100BE400AF002B30AE002F08B000B201B301B90141
:100BF400BA012A08A8002E30A90030300A128A113E
:100C04000F260A128A118312031332082F07AD002C
:100C14002D088400831380010800FC008312031351
:100C24002808FD00212E7D30F800831203132908C3
:100C3400F9007C080A128A1126270A128A117D08F3
:100C440084000A128A110D200A128A11003A031D27
:100C54002C2E2D2E152E83120313A801A901080092
:100C6400472E7208FF00710884000A128A110320BB
:100C74000A128A110A128A119B250A128A1101305A
:100C8400F1070318F20A0030F20772088312031303
:100C9400FF00710884000A128A1103200A128A11C3
:100CA400003A031D562E572E332E080072080319DE
:100CB4005C2E5D2E622E7208031D612E622E692E3B
:100CC40070080A128A1192250A128A11AD2E72082E
:100CD400093E840083130008F300840A0008F4002A
:100CE400730874040319772E782E962E7208093E21
:100CF40084000008F300840A0008F4007208023E2D
:100D040084000008F500840A0008F6007608803A9A
:100D1400F7007408803A7702031D922E7308750257
:100D24000318952E962EAD2E7208023E840083136E
:100D34000008F3007208840000087307F4007408C4
:100D44008400700880007208023E8400013080072D
:100D5400840A0318800A080083120313BD010A12CF
:100D64008A11C8250A128A110A128A11BB250A128D
:100D74008A110130F1008030F2000A128A11322601
:100D84000A128A11083083120313BE000A128A1150
:100D9400A5250A128A11831203133E08BB003B07E0
:100DA4000A128A11D7250A128A1170087104031DC8
:100DB400DC2EDD2EFB2E293083120313AA003E08FD
:100DC400BB00BC013B08AB003C08AC0044300A1239
:100DD4008A11F0250A128A114430F1000030F20021
:100DE4000A128A1132260A128A1183120313BD01D0
:100DF400BD0A0A128A11B0250A128A11C730831259
:100E04000313BB00052FBB0B042F082F01308312E3
:100E14000313BB003B08BE0778303E02031C132FAC
:100E2400142FC82E3D08031D182F192F222F4730C9
:100E3400F1008030F2000A128A1132260A128A1155
:100E4400222F0A128A11002883120313A40078089F
:100E54008400000884000A128A110D200A128A11E3
:100E6400253A031D362F372FD32F0130FA00780887
:100E740084007A088007BF01C00103100030031802
:100E84000130C300FF30C100FF30C2007808840085
:100E94000008A600260884000A128A110D200A12EE
:100EA4008A11783A031D572F582FCC2F79088400C4
:100EB40083130008FA00023080077A0884000008CF
:100EC400A000840A0008A100780884002608013ED6
:100ED4008000B92F2030A70020080F39A5000A3060
:100EE40025020318762F772F7C2F3030FA007A08EA
:100EF400A507802F5730FA007A08A5070130A7020A
:100F04002708A03E84002508800004300310A10CAB
:100F1400A00CFF3E031D882F200821040319932FE2
:100F2400942FB22F2708031D982F992F6E2FB22FBD
:100F34002708A03E840083130008FA00FB017A0806
:100F4400F0007B08F1002408F2000A128A115826E6
:100F54000A128A110130FA007A0883120313A707D0
:100F640020302706031DB72FB82F9A2FEA2F260803
:100F740084000A128A110D200A128A11FA00FB0158
:100F84007B08003A0319C72FCC2F7A08783A031943
:100F94006C2FCC2F0130FA00780884007A0880077F
:100FA400EA2F78088400000884000A128A110D20B0
:100FB4000A128A11FA00FB017A08F0007B08F1009A
:100FC4002408F2000A128A1158260A128A11CC2F18
:100FD400080083133F30840058300A128A11932585
:100FE4000A128A11A0308400C0300A128A11932593
:0C0FF4000A128A1183010A128A11AE2E23
:02400E00393F38
:00000001FF
